S01000004F6E6C696E6531362E7372656348
S11300000C942A000C9447000C9447000C9447006D
S11300100C9447000C9447000C9447000C94470040
S11300200C9447000C9447000C9447000C94470030
S11300300C9447000C9447000C9447000C94470020
S11300400C9447000C9447000C9447000C94470010
S11300500C94470011241FBECFE5D8E0DEBFCDBF0E
S113006010E0A0E6B0E0E0EDFEE002C005900D92E5
S1130070AC3CB107D9F720E0ACECB0E001C01D9274
S1130080AC3CB207E1F70E9468020C9466070C943A
S11300900000CF93C0E006C061E08CE08C0F0E94AA
S11300A05A06CF5FC430C0F3CF910895FF920F93E7
S11300B01F93CF93DF930F2EF4E5FF2EF02D10E066
S11300C027C00CE0010F60E0802F0E945A06D0E0A8
S11300D018C0CAE1CD0F8C2F0E94DD06811110C01B
S11300E0E12FF0E0EE0FFF1FEE0FFF1FE058FF4F70
S11300F0ED0FF11DF0808C2F0E94DD068823D9F3CB
S1130100DF5FD43030F361E0802F0E945A061F5F16
S11301101430B8F28F2DDF91CF911F910F91FF9082
S11301200895CF93C82F60E081E00E945A066C2F97
S1130130661F6627661F86E00E945A06C6FB66276E
S113014060F985E00E945A06C5FB662760F984E0E1
S11301500E945A06C4FB662760F983E00E945A068F
S113016061E082E00E945A068FEC97E00197F1F774
S113017000C0000060E082E00E945A068FEC97E025
S11301800197F1F700C00000C3FB662760F986E021
S11301900E945A06C2FB662760F985E00E945A064F
S11301A0C1FB662760F984E00E945A066C2F6170D7
S11301B083E00E945A0661E082E00E945A068FECB6
S11301C097E00197F1F700C0000060E082E00E9430
S11301D05A068FEC97E00197F1F700C00000CF9129
S11301E00895CF93C82F61E081E00E945A066C2FD6
S11301F0661F6627661F86E00E945A06C6FB6627AE
S113020060F985E00E945A06C5FB662760F984E020
S11302100E945A06C4FB662760F983E00E945A06CE
S113022061E082E00E945A068FEC97E00197F1F7B3
S113023000C0000060E082E00E945A068FEC97E064
S11302400197F1F700C00000C3FB662760F986E060
S11302500E945A06C2FB662760F985E00E945A068E
S1130260C1FB662760F984E00E945A066C2F617016
S113027083E00E945A0661E082E00E945A068FECF5
S113028097E00197F1F700C0000060E082E00E946F
S11302905A068FEC97E00197F1F700C00000CF9168
S11302A008952FE788E391E0215080409040E1F7E2
S11302B000C0000082E00E94910088E20E94910048
S11302C08CE00E94910081E00E9491008FEC97E005
S11302D00197F1F700C0000086E00E9491000895A4
S11302E00F931F93CF938C01C0E003C00E94F100D1
S11302F0CF5FF801EC0FF11D80818111F7CFCF9111
S11303001F910F9108950E94F1000895CF92DF92FA
S1130310EF92FF921F93CF93DF93CDB7DEB72A9767
S11303200FB6F894DEBF0FBECDBF6B017C01FE019A
S113033031968AE0DF011D928A95E9F7C114D10450
S1130340E104F10409F445C05CF48DE20E948301E8
S1130350F094E094D094C094C11CD11CE11CF11C15
S113036010E017C0C701B6012AE030E040E050E0D9
S11303700E942507E1E0F0E0EC0FFD1FE10FF11D05
S113038017FDFA95605D6083C22ED32EE42EF52E00
S11303901F5F1C141D041E041F0424F3E1E0F0E09D
S11303A0EC0FFD1FE10FF11D17FDFA951082FF24DC
S11303B0FA94F10E0CC0E1E0F0E0EC0FFD1FEF0D3C
S11303C0F11DF7FCFA9580810E94F100FA94FF2058
S11303D094F72A960FB6F894DEBF0FBECDBFDF9117
S11303E0CF911F91FF90EF90DF90CF9008958111EE
S11303F005C080E8860F0E949100089580EC860F66
S11304000E9491000895CF93DF93D82FC7E00DC0C9
S11304108D2F90E00C2E02C0959587950A94E2F7F3
S11304208170805D0E948301C150CC238CF7DF91E1
S1130430CF910895CF93982F92959F70C82FCF7026
S11304409A3028F480E3890F0E94830104C087E373
S1130450890F0E948301CA3028F480E38C0F0E9424
S1130460830104C087E38C0F0E948301CF91089518
S1130470AC0180E021E090E00BC0FA01E90FF11D2E
S113048097FDFA953081329F800D1124220F9F5FD2
S113049098309CF30895AC0180E091E00CC0FA011F
S11304A0E60FF11D67FDFA952081299F800D112427
S11304B09295907F6150662394F7089581E00E949D
S11304C091008FEC97E00197F1F700C000000895C8
S11304D0CF93DF93CDB7DEB729970FB6F894DEBF7D
S11304E00FBECDBF0E9415070E9451010E94490012
S11304F066E081E00E943905FE01319688E0DF0163
S11305001D928A95E9F764E080E00E94F70180E992
S113051090E00E947001BFEF24E38CE0B1502040D2
S11305208040E1F700C000000E945E02412C512C83
S11305303201812C912C5401212CC12CD12CE12C81
S1130540F12C312C00E00E945600182F002331F0CA
S1130550833621F0EE2011F0D11073C0133639F434
S1130560812C912C5401D12CE12CF12C00E00111AF
S113057011C060E080E00E94F70186E990E00E94EB
S1130580700160E081E00E94F70184EA90E00E943B
S1130590700101E0F11035C0113369F40E945E026C
S11305A060E080E00E94F701F39480EB90E00E9409
S11305B07001E12EC8CF1233A1F40E945E0260E004
S11305C080E00E94F701F39483EB90E00E947001B5
S11305D0E12E0F2EFEE04F2E512C612C712CF02DAC
S11305E0B2CF133309F0AFCF0E945E0260E080E027
S11305F00E94F701F39486EB90E00E947001E12ED3
S1130600A2CF60E081E00E94F701113339F4F39442
S113061080EB90E00E947001D12E95CF123339F413
S1130620F39483EB90E00E947001D12E8CCF1333AE
S113063009F089CFF39486EB90E00E947001D12EEB
S113064082CF843509F47FCF93E3E9124BC0A1E351
S1130650DA1248C080ED810F8A3070F563E080E0E3
S11306600E94F7018CEB90E00E94700163E080E04F
S11306700E94F701880C991CAA1CBB1CD501C4015B
S1130680880F991FAA1FBB1F880F991FAA1FBB1F82
S1130690880E991EAA1EBB1E812F90E0C097092EBA
S11306A0000CAA0BBB0B880E991EAA1EBB1EC5010B
S11306B0B4010E94860147CF1D3309F044CF63E0A3
S11306C081E00E94F70185EC90E00E94700163E0F4
S11306D081E00E94F701882D0E941A02812C912C3E
S11306E0540131CFB3E3EB124BC022E3D21248C022
S11306F080ED810F8A3070F563E080E00E94F7019D
S11307008CEB90E00E94700163E080E00E94F701AE
S1130710880C991CAA1CBB1CD501C401880F991F05
S1130720AA1FBB1F880F991FAA1FBB1F880E991EE3
S1130730AA1EBB1E812F90E0C097092E000CAA0BA5
S1130740BB0B880E991EAA1EBB1EC501B4010E94D4
S11307508601F9CE1D3309F0F6CE63E081E00E94F4
S1130760F70185EC90E00E94700163E081E00E9453
S1130770F701882D0E940302812C912C5401E3CEB1
S113078082E3E8124FC093E3D9124CC0A0EDA10F4D
S1130790A987A23010F5B1E03B1209C067E080E000
S11307A00E94F70189EB90E00E947001312C642DC6
S11307B080E00E94F701E1E0F0E0EC0FFD1FEC0D9A
S11307C0F11D2985208381E0481A510861087108C8
S11307D0C394812F0E948301B6CE1D3309F0B3CE9A
S11307E0198663E081E00E94F70185EC90E00E94A5
S11307F0700163E081E00E94F701CE0101960E943E
S11308003802682F70E080E090E00E9486010F2E8D
S1130810FEE04F2E512C612C712CF02DC12C332471
S1130820339491CE92E3E9124BC0A1E3DA1248C0AB
S1130830B0EDB10FB987B23010F521E0321209C022
S113084067E080E00E94F70189EB90E00E9470016C
S1130850312C642D80E00E94F701E1E0F0E0EC0F20
S1130860FD1FEC0DF11D8985808391E0491A510823
S113087061087108C394812F0E94830164CE1D33E3
S113088009F061CE198663E081E00E94F70185ECEE
S113089090E00E94700163E081E00E94F701CE01C4
S11308A001960E9438020E941A020F2EFEE04F2E7B
S11308B0512C612C712CF02DC12C3324339443CE54
S11308C0A1E3EA126BC0B3E3DB1268C031100EC0BF
S11308D063E080E00E94F7018CEB90E00E947001DD
S11308E063E080E00E94F7013324339480ED810FAC
S11308F08A3020F08FEB810F863060F5143478F065
S1130900222039F021E0221631F082E0281206C0BC
S113091004C014E403C015E401C016E4239490ED6C
S1130920910F99879A3038F4692F70E080E090E055
S11309300E94860105C0812F0E94830117531987E5
S1130940E1E0F0E0EC0FFD1FEC0DF11DA985A083A3
S1130950C394F9CD1D3309F0F6CD6FEF6C0DCE01C4
S113096001960E944B02182F198663E081E00E94D1
S1130970F70185EC90E00E94700163E081E00E9441
S1130980F701612F70E080E090E00E948601812CE5
S1130990912C5401212CC12C312CD5CDB1E3EB1277
S11309A0D2CD22E3D212CFCD31100EC063E080E06D
S11309B00E94F7018CEB90E00E94700163E080E0FC
S11309C00E94F7013324339480ED810F8A3020F0A4
S11309D08FEB810F863060F5143478F0222039F0E3
S11309E081E0281631F092E0291206C004C014E414
S11309F003C015E401C016E42394A0EDA10FA98758
S1130A00AA3038F46A2F70E080E090E00E948601FA
S1130A1005C0812F0E94830117531987E1E0F0E09C
S1130A20EC0FFD1FEC0DF11DB985B083C3948BCD84
S1130A301D3309F088CD6FEF6C0DCE0101960E9435
S1130A404B02182F198663E081E00E94F70185ECC0
S1130A5090E00E94700163E081E00E94F701812F21
S1130A600E940302812C912C5401212CC12C312C85
S1130A706ACD813059F018F0823079F014C087B112
S1130A808F7B87B987B18F7787B90DC087B18064B1
S1130A9087B987B18F7787B906C087B1806487B972
S1130AA087B1806887B986B1887F86B986B1682B9B
S1130AB066B986B1806886B90895982F96959695FB
S1130AC096958770613009F4A5C020F0623009F46E
S1130AD051C008959130C1F028F0923039F193302B
S1130AE0B9F108954AB321E030E0B90102C0660FBC
S1130AF0771F8A95E2F7CB01942F982B9ABB9BB36F
S1130B00809589238BBB089547B321E030E0B90178
S1130B1002C0660F771F8A95E2F7CB01942F982BBA
S1130B2097BB98B38095892388BB089544B321E08B
S1130B3030E0B90102C0660F771F8A95E2F7CB0156
S1130B40942F982B94BB95B38095892385BB0895E6
S1130B5041B321E030E0B90102C0660F771F8A95E6
S1130B60E2F7CB01942F982B91BB92B38095892304
S1130B7082BB08959130C1F028F0923039F193305E
S1130B80B9F108954AB321E030E0B90102C0660F1B
S1130B90771F8A95E2F7CB018095942F98239ABB0F
S1130BA09BB389238BBB089547B321E030E0B9019F
S1130BB002C0660F771F8A95E2F7CB018095942FC8
S1130BC0982397BB98B3892388BB089544B321E045
S1130BD030E0B90102C0660F771F8A95E2F7CB01B6
S1130BE08095942F982394BB95B3892385BB08954E
S1130BF041B321E030E0B90102C0660F771F8A9546
S1130C00E2F7CB018095942F982391BB92B389236B
S1130C1082BB08959130C1F028F0923039F19330BD
S1130C20B9F108954AB321E030E0B90102C0660F7A
S1130C30771F8A95E2F7CB01962F909594239ABB60
S1130C409BB3892B8BBB089547B321E030E0B901F6
S1130C5002C0660F771F8A95E2F7CB01962F909515
S1130C60942397BB98B3892B88BB089544B321E0A0
S1130C7030E0B90102C0660F771F8A95E2F7CB0115
S1130C80962F9095942394BB95B3892B85BB089597
S1130C9041B321E030E0B90102C0660F771F8A95A5
S1130CA0E2F7CB01962F9095942391BB92B3892BB5
S1130CB082BB0895982F96959695969587706111A5
S1130CC040C09130A1F028F09230F9F0933059F1FE
S1130CD008954BB321E030E0B90102C0660F771FDD
S1130CE08A95E2F7CB01809584238BBB089548B3A2
S1130CF021E030E0B90102C0660F771F8A95E2F760
S1130D00CB018095842388BB089545B321E030E06E
S1130D10B90102C0660F771F8A95E2F7CB0180956F
S1130D20842385BB089542B321E030E0B90102C0B9
S1130D30660F771F8A95E2F7CB018095842382BBE7
S1130D400895913099F028F09230E9F0933041F110
S1130D5008954BB321E030E0B90102C0660F771F5C
S1130D608A95E2F7CB01842B8BBB089548B321E02D
S1130D7030E0B90102C0660F771F8A95E2F7CB0114
S1130D80842B88BB089545B321E030E0B90102C04B
S1130D90660F771F8A95E2F7CB01842B85BB0895F4
S1130DA042B321E030E0B90102C0660F771F8A9593
S1130DB0E2F7CB01842B82BB0895982F96959695E4
S1130DC09695482F4770913081F028F09230B9F011
S1130DD09330F9F028C099B3892F90E002C095951B
S1130DE087954A95E2F78170089526B330E0C901EA
S1130DF002C0959587954A95E2F78170089523B3CB
S1130E0030E0C90102C0959587954A95E2F7817053
S1130E10089520B330E0C90102C0959587954A959D
S1130E20E2F78170089580E00895CF93C0E009C08F
S1130E30EC2FF0E0E05AFF4F60818C2F0E945D059B
S1130E40CF5FC032A8F3CF910895052E97FB1EF40F
S1130E5000940E943C0757FD07D00E94440707FCFA
S1130E6003D04EF40C943C07509540953095219551
S1130E703F4F4F4F5F4F08959095809570956195C2
S1130E807F4F8F4F9F4F0895A1E21A2EAA1BBB1BC1
S1130E90FD010DC0AA1FBB1FEE1FFF1FA217B30742
S1130EA0E407F50720F0A21BB30BE40BF50B661F58
S1130EB0771F881F991F1A9469F76095709580951C
S1130EC090959B01AC01BD01CF010895F894FFCF2B
S1130ED0020000000000000200000000000000000A
S1130EE000000000000000000001010101010000F9
S1130EF03738392F3435362A3132332D63303D2B90
S1130F0048656C6C6F00436F6E766572742E2E7438
S1130F106F2E2E00312D4820322D4220332D4400D7
S1130F20483A00423A00443A002020202020202061
S10F0F3020202020202020202020200051
S9030000FC
